S01200004C6173657244696F64652E7372656336
S1130000F6C2000014C3000012C3000010C30000B5
S11300100EC300000CC300000AC3000008C30000A4
S113002006C3000004C3000002C3000000C30000B4
S1130030FEC20000FCC20000FAC20000F8C20000C8
S1130040F6C20000F4C20000F2C20000F0C20000D8
S1130050EEC200000C94E00FEAC20000E8C2000007
S1130060E6C200000C94270A0C94710AE0C2000056
S1130070DEC200000C947708DAC20000D8C2000087
S1130080D6C20000D4C20000D2C20000D0C2000018
S1130090CEC20000CCC20000CAC200000C94DF082B
S11300A0C6C20000C4C20000C2C20000C0C2000038
S11300B0BEC20000BCC20000BAC20000B8C2000048
S11300C0B6C20000B4C20000B2C20000B0C2000058
S11300D0AEC20000ACC20000AAC20000A8C2000068
S11300E0A6C20000BD05DE05FF0520064106620626
S11300F08306A706CB06CB0DCF0DCF0DCF0DCF0DAD
S1130100CF0DCF0DCF0DCF0DCF0DCF0D350B350B43
S1130110350B350B350B350B350B350B350B350BDB
S1130120CF0DCF0DCF0DCF0DCF0DCF0DCF0DCF0DEB
S1130130CF0DCF0DCF0DCF0DCF0DCF0DCF0DCF0DDB
S1130140CF0DCF0DCF0DCF0DCF0DCF0DCF0DCF0DCB
S1130150CF0DCF0DCF0DCF0DCF0DCF0D640CCF0D27
S1130160CF0DCF0DCF0DCF0DCF0DCF0DCF0DCF0DAB
S1130170CF0D740B8A0BCF0DCF0DCF0DCF0D8A0B86
S1130180CF0DCF0DCF0DCF0DCF0DCF0D640CCF0DF7
S1130190CF0DC90BCF0D460CCF0DCF0D640C4E41C6
S11301A04E494E495459494E46CDCCCC3D0AD723ED
S11301B03C17B7D13877CC2B329595E6241FB14F35
S11301C00A000020410000C84200401C4620BCBE7A
S11301D04CCA1B0E5AAEC59D742E2E2E2E2E2E2EBC
S11301E02E2E2E2E2E2E2E2E2E2E2E2E2E2E2E2E2B
S11301F02E2E2E2E2E2E2E2E2E2E2E2E2E2E2E2E1B
S11302002E2E2E2E2E2E2E2E2E2E2E2E2E2E2E2E0A
S11302100D0A002E2E202020202020202020202007
S113022020202020202020202020202020202020CA
S113023020202020202020202020202020202020BA
S113024020202020202020202E2E0D0A002E2E20BB
S1130250202020202020202020202020202020209A
S11302605C5F2F20207C5F285F295F5F5F285F2908
S11302705F5F5F2F202020202020202020202020AE
S113028020202E2E0D0A002E2E202020202020207B
S11302902020202020202020205C2056202F207C7D
S11302A0207C7C207C5F7C207C207C5F7C207C20EC
S11302B02020202020202020202020202E2E0D0A47
S11302C0002E2E202020202020202020202020202E
S11302D020205C205C202F202F7C207C7C207C2014
S11302E07C207C207C207C207C202020202020203E
S11302F02020202020202E2E0D0A002E2E2020200B
S113030020202020202020202020205C205C202071
S1130310202F202F207C202F205F205C202F205F87
S1130320205C20202020202020202020202020208D
S11303302E2E0D0A002E2E202020202020202020CA
S113034020202020205F5F20202020205F5F5F206E
S113035020205F5F5F2020205F5F5F20202020201F
S1130360202020202020202020202E2E0D0A002EA8
S11303702E2020202020202020202020202020206B
S1130380207C5F7C2020207C5F7C20207C5F7C2084
S11303905C5F5F5F2F202020202020202020202051
S11303A0202020202E2E0D0A002E2E20202020205A
S11303B020202020202020202020207C20205F5F5F
S11303C02F7C207C20207C207C7C207C5F7C207CFB
S11303D020202020202020202020202020202E2EFD
S11303E00D0A002E2E202020202020202020202036
S11303F020202020207C207C5F29207C207C5C2FF6
S11304007C207C7C207C207C207C202020202020C0
S113041020202020202020202E2E0D0A002E2E20E9
S11304202020202020202020202020202020207C6C
S113043020205F205C7C20205C2F20207C7C207C82
S1130440207C207C202020202020202020202020F0
S113045020202E2E0D0A002E2E20202020202020A9
S11304602020207C5F7C202020205F5F5F5F202095
S11304705F5F20205F5F20205F2020205F202020FE
S11304802020202020202020202020202E2E0D0A75
S1130490002E2E202020207C5F5F5F5F2F7C202E8B
S11304A05F5F2F205C5F5F2C5F7C5C5F5F5F5C5FE6
S11304B05F5F7C5F5F5F5F5F7C5F7C5F7C5F7C20F6
S11304C07C5F7C2020202E2E0D0A002E2E20202042
S11304D020205F5F5F29207C207C5F29207C2028EE
S11304E05F7C207C20285F7C20205F5F2F207C5F46
S11304F05F5F7C207C207C207C207C207C20202052
S11305002E2E0D0A002E2E202020205C5F5F5F20FF
S11305105C7C20275F205C202F205F60207C2F20C4
S11305205F5F2F205F205C207C2020207C207C20AB
S11305307C20275F205C202020202E2E0D0A002EF8
S11305402E202020202F205F5F5F7C205F205F5FB4
S11305502020205F5F205F20205F5F5F205F5F5F60
S11305607C207C202020285F7C5F295F205F5F2027
S1130570202020202E2E0D0A002E2E202020202088
S11305805F5F5F5F2020202020202020202020206B
S113059020202020202020202020205F2020202018
S11305A0205F205F202020202020202020202E2EAD
S11305B00D0A002E2E2E2E2E2E2E2E2E2E2E2E2ECA
S11305C02E2E2E2E2E2E2E2E2E2E2E2E2E2E2E2E47
S11305D02E2E2E2E2E2E2E2E2E2E2E2E2E2E2E2E37
S11305E02E2E2E2E2E2E2E2E2E2E0D0A00001124EF
S11305F01FBECFEFD1E2DEBFCDBF00E00CBF14E0E1
S1130600A0E0B2E0EEEEF7E200E00BBF02C007901C
S11306100D92A832B107D9F725E0A8E2B4E001C0F1
S11306201D92AD37B207E1F712D50C94F513E8CC5F
S1130630EF92FF920F931F93CF93FC018081882345
S113064009F444C091E0C0E020E031E0803219F4C4
S11306501082932F0EC0992361F0C830C8F5AC2FD7
S1130660B0E0AA0FBB1FA85DBB4FED93FC93CF5F17
S1130670922F319680818111E9CFCC2359F1609179
S11306800702709108026115710531F1E0902804A8
S1130690F090290407E012E0C7010E946E12892B32
S11306A059F4D8011296ED91FC91139768E274E025
S11306B08C2F90E0199511C00A5F1F4FF8016081DB
S11306C071816115710541F781E007C081E005C0C2
S11306D082E003C081E001C081E0CF911F910F91BE
S11306E0FF90EF900895CF93DF9384E692E073D662
S11306F08091070290910802009771F0C7E0D2E060
S11307006AD68C819D8167D684ED92E064D6269664
S1130710888199810097A1F780E090E0DF91CF91E3
S11307200895CF93DF93823091050CF441C0039771
S11307300CF041C0FB01C281D3816CE772E0CE01B1
S11307400E946E12892BA1F4E4EEF4E081818F9370
S113075080818F9380E892E09F938F930E94F60D9F
S113076086E992E038D60F900F900F900F901AC040
S113077069E972E0CE010E946E12892BF9F4E4EE6D
S1130780F4E083818F9382818F938DE992E09F932C
S11307908F930E94F60D86E992E01DD60F900F907C
S11307A00F900F9084ED92E016D680E090E008C0A0
S11307B083E090E005C082E090E002C084E090E035
S11307C0DF91CF9108958F929F92AF92BF92CF9273
S11307D0DF92FF920F931F93CF93DF936C01EB0192
S11307E08C819D810E945112F82E8E819F810E94DE
S11307F04E124B015C010A811B816CE772E0C80157
S11308000E946E12EC01892B09F049C0F1100BC053
S113081083E0C816D1040CF493C084E0C816D10454
S11308200CF091C036C08FEF8F0D803370F584E0EB
S1130830C816D1040CF48AC085E0C816D1040CF0A3
S113084088C020E030E0A901C501B4010E944B102A
S113085088230CF481C02DEC3CEC4CE950E4C50138
S1130860B4010E94951118160CF479C020E030E010
S113087048EC52E4C501B4010E9499110E94B710DA
S11308807093B3046093B20404C080E38F1508F43A
S113089069C0EFEAF4E081E08183F0827DC069E918
S11308A072E0C8010E946E12EC01892B09F05DC050
S11308B0F1100BC083E0C816D1040CF459C084E0D5
S11308C0C816D1040CF057C035C08FEF8F0D84309B
S11308D070F584E0C816D1040CF450C085E0C81645
S11308E0D1040CF04EC020E030E0A901C501B401F0
S11308F00E944B1088230CF447C02DEC3CEC4CE9CF
S113090050E4C501B4010E94951118160CF43FC0BF
S113091020E030E048EC52E4C501B4010E94991192
S11309200E94B7107093B8046093B70403C084E0C6
S11309308F1580F1EFEAF4E081E08683F5822CC024
S1130940C3E0D0E029C0C2E0D0E026C0C3E0D0E0DC
S113095023C0C2E0D0E020C0C4E0D0E01DC0C4E0A9
S1130960D0E01AC0C4E0D0E017C0C4E0D0E014C0A6
S1130970C3E0D0E011C0C2E0D0E00EC0C3E0D0E0DC
S11309800BC0C2E0D0E008C0C4E0D0E005C0C4E0C1
S1130990D0E002C0C4E0D0E0CE01DF91CF911F913E
S11309A00F91FF90DF90CF90BF90AF909F908F906A
S11309B00895CF9347C080915B0490915C04C4D4A4
S11309C0C82FF6D4CD3011F0CA3009F580913A041D
S11309D08823C9F0E82FF0E0E55CFB4F10828F5FBD
S11309E080933A048BE394E023DE10923A04880F58
S11309F0990BFC01E15EFD4F80819181ECD485EB84
S1130A0092E0E9D41FC085EB92E0E5D41BC0C83066
S1130A1011F0CF3741F480913A04882399F0815042
S1130A2080933A040FC080913A04E82FF0E0E55C2B
S1130A30FB4FC0838F5F803218F480933A0402C066
S1130A4010923A0480915B0490915C0461D48823F1
S1130A5009F4B1CFCF910895EF92FF920F931F93B2
S1130A60CF93DF93CDB7DEB7A4970FB6F894DEBF6C
S1130A700FBECDBF84E2E0E4F2E0DE011196019006
S1130A800D928A95E1F784ED92E0A5D48E010F5F73
S1130A901F4F7E0185E2E80EF11CF80181919191CE
S1130AA08F01BFD40E151F05C1F783EB92E093D4D9
S1130AB0A4960FB6F894DEBF0FBECDBFDF91CF91E1
S1130AC01F910F91FF90EF90089553D4BBD490934E
S1130AD05C0480935B0480E2EBE3F4E0DF011D92AD
S1130AE08A95E9F710923A0488EB92E074D4B4CF73
S1130AF00895EBDF61E072E080E092E00C94C30EB5
S1130B0008950F9A84B1816F84B987B1886F87B9CA
S1130B108AB1886F8AB98DB18C6F8DB983B38D63B7
S1130B2083BBE1E0F1E080818FEF8083E4E0F1E0DA
S1130B3080818F678083EAE0F1E08081836F808326
S1130B4087B1876087B9999A0C94050E0895882314
S1130B5009F445C18150282F30E0F901EF51FC4FD1
S1130B60808190E08930910508F039C1FC01882723
S1130B70EE58FF4F8F4F0C942D12662371F042B143
S1130B80F901EF54FC4F81E090E0008002C0880F2F
S1130B90991F0A94E2F7842B0FC092B1F901EF5424
S1130BA0FC4F21E030E0008002C0220F331F0A9482
S1130BB0E2F7822F8095892382B90895662371F024
S1130BC045B1F901EF54FC4F81E090E0008002C090
S1130BD0880F991F0A94E2F7842B0FC095B1F9018D
S1130BE0EF54FC4F21E030E0008002C0220F331F9D
S1130BF00A94E2F7822F8095892385B908956623A4
S1130C0071F048B1F901EF54FC4F81E090E00080AD
S1130C1002C0880F991F0A94E2F7842B0FC098B181
S1130C20F901EF54FC4F21E030E0008002C0220FB4
S1130C30331F0A94E2F7822F8095892388B9089597
S1130C40662371F04BB1F901EF54FC4F81E090E061
S1130C50008002C0880F991F0A94E2F7842B0FC00A
S1130C609BB1F901EF54FC4F21E030E0008002C059
S1130C70220F331F0A94E2F7822F809589238BB9C0
S1130C800895662371F04EB1F901EF54FC4F81E0F1
S1130C9090E0008002C0880F991F0A94E2F7842B29
S1130CA00FC09EB1F901EF54FC4F21E030E0008009
S1130CB002C0220F331F0A94E2F7822F8095892302
S1130CC08EB90895662371F044B3F901EF54FC4FD3
S1130CD081E090E0008002C0880F991F0A94E2F737
S1130CE0842B0FC094B3F901EF54FC4F21E030E0A2
S1130CF0008002C0220F331F0A94E2F7822F8095EE
S1130D00892384BB0895662379F040910201F90197
S1130D10EF54FC4F81E090E0008002C0880F991FDF
S1130D200A94E2F7842B10C090910201F901EF5468
S1130D30FC4F21E030E0008002C0220F331F0A94F0
S1130D40E2F7822F80958923809302010895662318
S1130D5079F040910501F901EF54FC4F81E090E0F6
S1130D60008002C0880F991F0A94E2F7842B10C0F8
S1130D7090910501F901EF54FC4F21E030E000802F
S1130D8002C0220F331F0A94E2F7822F8095892331
S1130D90809305010895662379F040910B01F901D0
S1130DA0EF54FC4F81E090E0008002C0880F991F4F
S1130DB00A94E2F7842B11C090910B01F901EF54CE
S1130DC0FC4F41E050E09A01008002C0220F331F23
S1130DD00A94E2F7822F8095892380930B0108956A
S1130DE0882339F1815049F4662319F084B3826071
S1130DF002C084B38D7F84BB0895662369F048B133
S1130E00815021E030E0B90102C0660F771F8A9556
S1130E10E2F7CB01842B0CC098B1815021E030E083
S1130E2002C0220F331F8A95E2F7822F809589230F
S1130E3088B90895CF93DF938091B004811180C065
S1130E4080915F04811182C034C0E9EBF4E08081B9
S1130E50C9EDD4E088838181F6D69C838B830DC051
S1130E60A9EDB4E0EFEAF4E080818C93838194816E
S1130E7014969C938E9313971182C9EDD4E060E08D
S1130E808A8165DE8881811102C00FD70BC0C9ED4C
S1130E90D4E08B819C81C6D6682F80E0E6D661E0E1
S1130EA0888155DEE9EDF4E0808192819813809386
S1130EB0DB048091B50481114FC080915F048111DE
S1130EC051C056C0E9EBF4E08281C9EDD4E08D83D2
S1130ED08381B9D6998788870FC0A9EDB4E0EFEA7A
S1130EE0F4E0858115968C931597808591851996E4
S1130EF09C938E9318971682C9EDD4E060E08F819D
S1130F006FDF8D81811103C081E0CFD60BC0C9EDA5
S1130F10D4E08885998586D6682F81E0A6D661E0DD
S1130F208D815EDFE9EDF4E08581978198138093EC
S1130F30E00480915F048823D9F010925F0418C004
S1130F4080915F04882309F48BCF7FCF80915F0465
S1130F50882309F492CF79CF80915F04882309F420
S1130F60BCCFB0CF80915F04882309F4C5CFAACF4A
S1130F70DF91CF910895C5DD6AE272E089E292E0E3
S1130F8002C70895E8E0F1E08081806880830895D5
S1130F9080915D0486958F7319F0813059F108951D
S1130FA080915D0480FF11C080E0E0D68823B1F118
S1130FB080915D048E7F80935D04E4DF44EF51E013
S1130FC060E070E080E0CBC6089580E0CFD688234F
S1130FD029F180915D04816080935D04E8E0F1E093
S1130FE080818F77808344EF51E060E070E080E09F
S1130FF0B6C6089580915D0480FF10C080E0B6D627
S1131000882361F080915D048E7F80935D04BADF54
S113101048EB5BE060E070E080E0A1C60895E7E0A3
S1131020F1E0808180688083E8E0F1E080818F775F
S1131030808380915D04807880935D04A3CF0895BC
S1131040EEDF61E372E080E392E09DC6089586E2FC
S1131050AED08ED03DD66BD6F3DF26D08CDF49DD03
S113106040D741D7FECF0F931F93CF93DF9308EE62
S113107014E0F8018081918156D6C4EED4E09983BE
S11310808883F801828193814ED68A839B83288149
S11310903981EFE8F4E03483258396838783DF91F5
S11310A0CF911F910F91089506D068E372E087E312
S11310B092E069C6089580E480937C00EAE7F0E05A
S11310C080818768808380B38C7F80BB81B38C7F71
S11310D081BB80818860808378940895ECE7F0E098
S11310E09081907E90839081892B808308951F92B4
S11310F00F920FB60F9211240BB60F922F933F93BA
S11311004F935F936F937F938F939F93AF93BF930B
S1131110CF93EF93FF93C091EC048091780090916A
S11311207900EC2FF0E0EE0FFF1FE851FB4F9183A5
S11311308083CF5FC23008F0C0E08C2FCFDFE8EEB1
S1131140F4E0C48385E08583FF91EF91CF91BF9153
S1131150AF919F918F917F916F915F914F913F914B
S11311602F910F900BBE0F900FBE0F901F901895EC
S113117085B1866085B984B1876084B980E58CBD0A
S11311801DBC08958EBD0DB407FEFDCF8EB5089528
S113119083E085BDEEE6F0E0808182608083789410
S11311A0089582E084BD16BC8CE787BD0895880F3E
S11311B08093BA0085EC8093BC00789408951F92C4
S11311C00F920FB60F9211240BB60F928F939F9329
S11311D0EF93FF931092EE048091B900887F803AD8
S11311E009F443C028F4803669F08038B1F074C043
S11311F0883B09F459C0803C09F468C0883A09F076
S11312006BC040C08FEF80938E0410925E04ECEBB1
S1131210F0E08081856C808364C09091BB008091F4
S11312205E048F5F80935E0480918E048F3F19F477
S113123090938E040AC0E0918E0481E08E0F809317
S11312408E04F0E0E754FB4F908380918E0480324B
S113125030F0ECEBF0E080818568808342C0ECEBF9
S1131260F0E08081856C80833CC080915E04823094
S113127018F081E080935F04ECEBF0E08081856CF2
S113128080832FC0E0918E0481E08E0F80938E04C2
S1131290F0E0E157FB4F80818093BB00ECEBF0E082
S11312A08081856C80831DC0E0918E0481E08E0F67
S11312B080938E04F0E0E157FB4F80818093BB0064
S11312C0ECEBF0E08081856C80830BC0ECEBF0E00C
S11312D08081856C808305C0ECEBF0E08081856CB7
S11312E08083FF91EF919F918F910F900BBE0F9090
S11312F00FBE0F901F9018952FB7F894FC01E05C77
S1131300FF4F108231961082319610822FBF0895BC
S11313108E5B9F4FFC01908181E0911180E00895E4
S1131320FB01E05CFF4F9081DB01A90FB11D8C93A1
S11313309FB7F89480818F5F8F738083329680810A
S11313408F5F80839FBF0895FC01EF5BFF4F208177
S1131350DC01A20FB11D3C914FB7F89420812F5F9F
S11313602F73208331969081915090834FBF832FA8
S113137008956898709A80913E0290913F028D5B27
S11313809F4FBADF80913E0290913F02B5DF1092E9
S1131390C50083E38093C400E1ECF0E080818869B8
S11313A08083E2ECF0E08081826080837894089509
S11313B060913E0270913F02FB01EB57FF4F908119
S11313C09034E9F36D5B7F4FABDFE1ECF0E08081BB
S11313D0806280830895CF93DF93EC018881882312
S11313E029F02196E5DF89918111FCCFDF91CF911E
S11313F008950F931F93CF93DF93662369F0EC0155
S11314006150062F10E00F5F1F4F080F191F8991BD
S1131410CFDFC017D107D9F7DF91CF911F910F917B
S11314200895CF93DF93EC012196FC0184918823E6
S113143031F0BEDFFE01849121968111FACFDF9154
S1131440CF91089580913E0290913F0208951F929A
S11314500F920FB60F9211240BB60F922F933F9356
S11314604F935F936F937F938F939F93AF93BF93A8
S1131470EF93FF938091C60060913E0270913F020A
S1131480FB01EE5BFF4F9081903471F049DFE091F6
S11314903E02F0913F028091C0008C7190E0EA57C7
S11314A0FF4F918380830AC08091C0008C7181605A
S11314B090E0FB01EA57FF4F91838083FF91EF9106
S11314C0BF91AF919F918F917F916F915F914F9158
S11314D03F912F910F900BBE0F900FBE0F901F9056
S11314E018951F920F920FB60F9211240BB60F92FC
S11314F02F933F934F935F936F937F938F939F9318
S1131500AF93BF93EF93FF9380913E0290913F027C
S1131510FC01EB57FF4F2081222331F08D5B9F4F5D
S113152013DF8093C60005C0E1ECF0E080818F7D7D
S11315308083FF91EF91BF91AF919F918F917F91A4
S11315406F915F914F913F912F910F900BBE0F9030
S11315500FBE0F901F9018952F923F924F925F925B
S11315606F927F928F929F92AF92BF92CF92DF92AF
S1131570EF92FF920F931F93CF93DF93CDB7DEB714
S1131580AA970FB6F894DEBF0FBECDBF8C017AA721
S113159069A76E0189E1C80ED11C2C2C3D2C09C30E
S11315A019821A821B821C8289819A81AB81BC8137
S11315B0F801E80FF91F8081853249F189819A8108
S11315C0AB81BC81F801E80FF91F80818823F9F011
S11315D089819A81AB81BC810196A11DB11D89834A
S11315E09A83AB83BC8389819A81AB81BC81F801E6
S11315F0E80FF91F8081853251F089819A81AB818E
S1131600BC81F801E80FF91F80818111E1CF698164
S11316107A818B819C81C801ECDE89819A81AB81BE
S1131620BC81080F191FD8018C91853209F0C1C201
S113163011961D861E861F86188A6894FF24F5F865
S11316408D010F5F1F4F2C91422F022E000C550B62
S1131650660B770BFA01B597E435F10508F09FC2E4
S11316608827E558FF4F8F4FF8C6203361F48D85E6
S11316709E85AF85B889892B8A2B8B2B21F40F2E5D
S1131680F0E3FF2EF02D8D859E85AF85B889880FF8
S1131690991FAA1FBB1FAC01BD01440F551F661F34
S11316A0771F440F551F661F771F840F951FA61FB2
S11316B0B71F8D879E87AF87B88B4D855E856F85F5
S11316C07889022E000C330BC901C097092E000C37
S11316D0AA0BBB0B840F951FA61FB71F8D879E8770
S11316E0AF87B88BD801ACCFE9A4FAA4B4E0EB0E71
S11316F0F11CE9A5FAA580819181A281B3818D8332
S11317009E83AF83B88761E0CE01059672DEFAA6A8
S1131710E9A64FC229A53AA52E5F3F4FA9A5BAA5B0
S11317208D919C91A0E0B0E08D839E83AF83B887B8
S113173019861A861B861C868D819E81AF81B88589
S1131740BB23C4F48D819E81AF81B885B095A095EB
S1131750909581959F4FAF4FBF4F8D839E83AF83ED
S1131760B88781E090E0A0E0B0E08D8B9E8BAF8BDA
S1131770B88F04C01D8A1E8A1F8A188E8AE090E0E2
S1131780A0E0B0E0898B9A8BAB8BBC8B3AA729A7DE
S1131790BAC0E9A4FAA492E0E90EF11CA9A5BAA57D
S11317A08D919C9119821A821B821C8249815A81D3
S11317B06B817C81FC01E40FF51F20812223B1F0B1
S11317C049815A816B817C814F5F5F4F6F4F7F4F9F
S11317D049835A836B837C8349815A816B817C81E1
S11317E0FC01E40FF51F20812111EACF49815A81C0
S11317F06B817C81642FFDDD4D855E856F857889E5
S113180089819A81AB81BC8184179507A607B707A4
S113181008F0CAC149815A816B817C818D859E857E
S1131820AF85B889841B950BA60BB70B8D879E8754
S1131830AF87B88B8D859E85AF85B889AC01BD0116
S113184041505109610971094D875E876F87788B13
S1131850892B8A2B8B2B09F4AAC161E086EB92E0D9
S1131860C8DD8D859E85AF85B889AC01BD01415029
S11318705109610971094D875E876F87788B892BC0
S11318808A2B8B2B51F7FAA6E9A693C1E9A5FAA5F1
S113189080819181A0E0B0E08D839E83AF83B8877F
S11318A019861A861B861C868AE090E0A0E0B0E0C8
S11318B0898B9A8BAB8BBC8B1D8A1E8A1F8A188ED0
S11318C03296FAA7E9A71FC0A9A5BAA58D919C9144
S11318D0A0E0B0E08D839E83AF83B88719861A8613
S11318E01B861C8680E190E0A0E0B0E0898B9A8B97
S11318F0AB8BBC8B1D8A1E8A1F8A188EA9A5BAA51C
S11319001296BAA7A9A781E090E0A0E0B0E089838D
S11319109A83AB83BC8329813A814B815C81698939
S11319207A898B899C898D809E80AF80B88464D5A8
S113193086169706A806B90658F544C029893A8937
S11319404B895C8969817A818B819C8155D56983B6
S11319507A838B839C838D859E85AF85B889019717
S1131960A109B1098D879E87AF87B88B29813A81F8
S11319704B815C8169897A898B899C898D809E8061
S1131980AF80B88439D586169706A806B906D0F074
S113199029813A814B815C8169897A898B899C8907
S11319A049885A886B887C8889809A80AB80BC80FF
S11319B023D5A30192012FD5281539054A055B05C6
S11319C009F4BCCF8D899E89AF89B88D892B8A2B68
S11319D08B2B59F08D859E85AF85B8890197A10918
S11319E0B1098D879E87AF87B88B8D899E89AF8912
S11319F0B88D892B8A2B8B2BD1F090E3F91217C069
S1131A0089859A85AB85BC85AC01BD014F5F5F4F6D
S1131A106F4F7F4F49875A876B877C87F601E80FA2
S1131A20F91FADE2A0831D8A1E8A1F8A188E8D8538
S1131A309E85AF85B8890297A105B10508F440C019
S1131A408D859E85AF85B8894097A105B105C0F500
S1131A508D859E85AF85B8890197A109B1098D87C8
S1131A609E87AF87B88B8D859E85AF85B889892B76
S1131A708A2B8B2B29F189859A85AB85BC85AC0192
S1131A80BD014F5F5F4F6F4F7F4F49875A876B8709
S1131A907C87F601E80FF91FF0828D859E85AF855E
S1131AA0B8890197A109B1098D879E87AF87B88B43
S1131AB08D859E85AF85B889892B8A2B8B2BD9F68A
S1131AC08D899E89AF89B88D892B8A2B8B2B99F0B0
S1131AD089859A85AB85BC85AC01BD014F5F5F4F9D
S1131AE06F4F7F4F49875A876B877C87F601E80FD2
S1131AF0F91FBDE2B08389819A81AB81BC81892BB6
S1131B008A2B8B2B09F43FC049845A846B847C84D0
S1131B10B301A2014F5F5F4F6F4F7F4F49875A87D1
S1131B206B877C876D817E818F81988529813A813D
S1131B304B815C8189889A88AB88BC887601E40CE7
S1131B40F51C69D4CA01B901A501940164D4FB014F
S1131B50EF5EFB4F8081F701808329893A894B89A5
S1131B605C8969817A818B819C8155D429833A83EC
S1131B704B835C8389819A81AB81BC81892B8A2BBD
S1131B808B2B09F0C1CF69857A858B859C85822D45
S1131B90932D2FDC0EC061E0CD012BDC0AC065E083
S1131BA082E294E026DC05C0FAA6E9A602C0FAA601
S1131BB0E9A6D8018C918111F3CCAA960FB6F894BA
S1131BC0DEBF0FBECDBFDF91CF911F910F91FF906C
S1131BD0EF90DF90CF90BF90AF909F908F907F90C9
S1131BE06F905F904F903F902F900895CF93DF9325
S1131BF0CDB7DEB7BE016A5F7F4FFB018191919142
S1131C00BF01AADCDF91CF910895109AE8E0F1E0DA
S1131C10808180618083089AE7E0F1E080818061BF
S1131C2080830895BC0180E090E0CDD223E333E3C8
S1131C3043E250E47ED320E030E040EA50E42FD287
S1131C4096D2862F0895682F70E080E090E0BDD290
S1131C5020E030E040EA50E46CD323E333E343E292
S1131C6050E41DD284D2CB010895CF93DF93109812
S1131C70882331F080E1689FE0011124D06B05C016
S1131C8080E1689FE0011124D0638D2F7BDA8C2FD3
S1131C9079DA109AE8E0F1E080818F7E8083808198
S1131CA080618083DF91CF9108951098811102C0E3
S1131CB080E201C080EA66DA80E064DA109AE8E043
S1131CC0F1E080818F7E80838081806180830895AC
S1131CD0EAE0F1E08081886080830895EBE0F1E040
S1131CE08081886080830895EBE0F1E08081877FC4
S1131CF080830895BC0180E090E065D220E030E06C
S1131D0040EA50E416D320E030EC4FE754E4C7D166
S1131D1020E030E04AE754E40CD320E030E040EF28
S1131D2051E4BDC10895E6DF22D2CB01089510929B
S1131D3078051092770510926104109260048AE28B
S1131D40E2E6F4E0DF011D928A95E9F784E0E9E731
S1131D50F5E0DF011D928A95E9F723CA0895811100
S1131D6004C050937A05409379050895E82FF0E074
S1131D70EE0FFF1FE758FA4F2081318181E0232BBA
S1131D8009F080E00895CF93DF93EC01892B39F1BA
S1131D906115710531F190916104963020F5292F78
S1131DA030E0F901EE0FFF1FDF01A20FB31FAA0FEE
S1131DB0BB1FAE59BB4F15967C936E931497119627
S1131DC01C92119713961C921E921297FD0181E0AA
S1131DD0808398839F5F9093610480E005C081E0D5
S1131DE003C081E001C081E0DF91CF910895CF92DB
S1131DF0DF92EF92FF921F93CF93DF938091770549
S1131E0090917805019690937805809377052091B9
S1131E106104222301F1E2E6F4E080E031E0A481F0
S1131E20B5819C91913099F49081913081F44281F3
S1131E3053814F5F5F4F5383428312966D917C9120
S1131E4013974617570718F01382128231838F5F56
S1131E5036968213E4CF209160042223A1F1E1E6B7
S1131E60F4E080E031E010E0DF0190819130E1F4B2
S1131E70428153814F5F5F4F53834283C481D58135
S1131E8060E070E0C980DA80EB80FC804C155D0571
S1131E906E057F0548F0318313821282932F4881A7
S1131EA0423009F0912F9C938F5F36968213DCCFDA
S1131EB00AC08091790590917A05019790937A05EB
S1131EC08093790506C08091790590917A05892BD4
S1131ED081F7DF91CF911F91FF90EF90DF90CF902A
S1131EE0089556C90895CF93809161048823B9F168
S1131EF0C0E08C2F90E0FC01EE0FFF1FE80FF91FEC
S1131F00EE0FFF1FEE59FB4F2181213019F5FC0123
S1131F10EE0FFF1FE80FF91FEE0FFF1FEE59FB4FE7
S1131F2020812130B9F4FC01EE0FFF1FDF01A80F5F
S1131F30B91FAA0FBB1FAE59BB4F11961C92119724
S1131F40FD010480F581E02D0480F581E02D3097BA
S1131F5009F01995CF5F80916104C81750F2809100
S1131F606004882359F1C0E08C2F90E0FC01EE0F4F
S1131F70FF1FE80FF91FEE0FFF1FEF59FB4F2181E1
S1131F802130B9F4FC01EE0FFF1FDF01A80FB91FC8
S1131F90AA0FBB1FAF59BB4F11961C921197FD019D
S1131FA00480F581E02D0580F681E02D309709F05D
S1131FB01995CF5F80916004C817B0F2CF9108954E
S1131FC01F920F920FB60F9211240BB60F922F93FC
S1131FD03F934F935F936F937F938F939F93AF93AD
S1131FE0BF93EF93FF9303DF8091ED04811106C04B
S1131FF0EAE7F0E080818064808303C081508093AD
S1132000ED0480918C0490918D04009729F101973F
S113201090938D0480938C0420910B0123FF0AC0BC
S1132020892BF9F480ED97E090938D0480938C04D0
S11320305BDE1EC080910B0183FD1AC080918C046D
S113204090918D04892BA1F488EC90E090938D04F9
S113205080938C0443DE0CC080910B0183FF04C089
S1132060E1CF80910B0104C080910B0183FFECCF81
S1132070FF91EF91BF91AF919F918F917F916F915C
S11320805F914F913F912F910F900BBE0F900FBE18
S11320900F901F901895D4D008F481E008950CD0C7
S11320A00AC102D140F0F9D030F021F45F3F19F0B9
S11320B0EBC0511134C1EEC00FD198F39923C9F389
S11320C05523B1F3951B550BBB27AA27621773073A
S11320D0840738F09F5F5F4F220F331F441FAA1FEE
S11320E0A9F333D00E2E3AF0E0E830D091505040AE
S11320F0E695001CCAF729D0FE2F27D0660F771F5C
S1132100881FBB1F261737074807AB07B0E809F03D
S1132110BB0B802DBF01FF2793585F4F2AF09E3FD2
S1132120510568F0B1C0FBC05F3FECF3983EDCF3AF
S1132130869577956795B795F7959F5FC9F7880F4B
S1132140911D9695879597F90895E1E0660F771F9D
S1132150881FBB1F621773078407BA0720F0621B2E
S1132160730B840BBA0BEE1F88F7E0950895BCD06F
S113217088F09F5790F0B92F9927B751A0F0D1F06C
S1132180660F771F881F991F1AF0BA95C9F712C0F6
S1132190B13081F0C3D0B1E00895C0C0672F782F6B
S11321A08827B85F39F0B93FCCF386957795679562
S11321B0B395D9F73EF490958095709561957F4FCE
S11321C08F4F9F4F0895E89409C097FB3EF4909574
S11321D08095709561957F4F8F4F9F4F9923A9F0FC
S11321E0F92F96E9BB279395F6958795779567958B
S11321F0B795F111F8CFFAF4BB0F11F460FF1BC0CF
S11322006F5F7F4F8F4F9F4F16C0882311F096E961
S113221011C0772321F09EE8872F762F05C066230F
S113222071F096E8862F70E060E02AF09A95660FC8
S1132230771F881FDAF7880F9695879597F9089581
S1132240990F0008550FAA0BE0E8FEEF16161706C3
S1132250E807F907C0F012161306E407F50798F02B
S1132260621B730B840B950B39F40A2661F0232B44
S1132270242B252B21F408950A2609F4A140A695C0
S11322808FEF811D811D089597F99F6780E870E0A5
S113229060E008959FEF80EC089500240A941616D8
S11322A0170618060906089500240A941216130640
S11322B0140605060895092E0394000C11F48823CE
S11322C052F0BB0F40F4BF2B11F460FF04C06F5FEA
S11322D07F4F8F4F9F4F089557FD9058440F551FC0
S11322E059F05F3F71F04795880F97FB991F61F094
S11322F09F3F79F087950895121613061406551F0B
S1132300F2CF4695F1DF08C0161617061806991F76
S1132310F1CF86957105610508940895E894BB276B
S113232066277727CB0197F908958ADF08F48FEFA2
S113233008950BD0C0CFB1DF28F0B6DF18F0952395
S113234009F0A2CFA7CF1124EACFC6DFA0F3959F4F
S1132350D1F3950F50E0551F629FF001729FBB2788
S1132360F00DB11D639FAA27F00DB11DAA1F649F34
S11323706627B00DA11D661F829F2227B00DA11DE7
S1132380621F739FB00DA11D621F839FA00D611D6D
S1132390221F749F3327A00D611D231F849F600D8E
S11323A0211D822F762F6A2F11249F5750408AF0C7
S11323B0E1F088234AF0EE0FFF1FBB1F661F771F53
S11323C0881F91505040A9F79E3F510570F05CCF93
S11323D0A6CF5F3FECF3983EDCF38695779567953F
S11323E0B795F795E7959F5FC1F7FE2B880F911D71
S11323F09695879597F90895DB018F939F9335D030
S1132400BF91AF91A29F800D911DA39F900DB29F8C
S1132410900D11240895A1E21A2EAA1BBB1BFD01E5
S11324200DC0AA1FBB1FEE1FFF1FA217B307E407AF
S1132430F50720F0A21BB30BE40BF50B661F771F07
S1132440881F991F1A9469F76095709580959095E7
S11324509B01AC01BD01CF010895EE0FFF1F881F42
S11324608BBF0790F691E02D199409D0A59F900D8C
S1132470B49F900DA49F800D911D11240895A29FD7
S1132480B001B39FC001A39F700D811D1124911D44
S1132490B29F700D811D1124911D08956627772721
S11324A02EC0FC0188279927E89421912032E9F372
S11324B0293010F02E30C8F32B3239F02D3231F49C
S11324C0689403C014D0820F911D219120532A30A7
S11324D0C8F31EF4909581959F4F0895FB01DC018C
S11324E08D91019080190110D9F3990B08957AE028
S11324F0979F902D879F802D910D112408958F9281
S11325009F92AF92BF92CF92DF92EF92FF920F937E
S11325101F93CF93DF93EC016B016115710519F0E3
S1132520FB01918380837E01FFEFEF1AFF0A08818C
S1132530802F90E037D1892B11F0E701F4CF0D32D1
S113254039F47E0182E0E80EF11C098111E008C033
S11325500B3229F47E0192E0E90EF11C098110E0AE
S1132560E701219743E050E066EA71E0CE0122D111
S1132570892BB9F4239645E050E061EA71E0CE017D
S113258019D1892B09F42596C114D10419F0F60147
S1132590D183C0831111F0C060E070E080E89FE750
S11325A0F4C043E050E06EE971E0CE0103D1892B21
S11325B059F4C114D10409F4E4C0F2E0EF0EF11CA3
S11325C0F601F182E082DDC020E030E0A901C0E044
S11325D0D0E0F70160EDA62EA00E89E08A1528F15F
S11325E0912F9260B92E812F887012FF04C081113F
S11325F023C0219621C081112197A5E0B0E035DFE9
S1132600DC01CB01880F991FAA1FBB1F9C01AD01E0
S11326102A0D311D411D511D283989E93807480704
S113262089E1580748F0166006C09EEFA9120AC057
S113263013FD40C01860B12E8FEFE81AF80A00812C
S11326401B2DC7CF802F8F7D8534A1F580818D32DE
S113265011F4106106C08B3221F0319661E070E014
S113266004C08181329662E070E080538A3018F0B1
S1132670E61BF70B1FC060E070E060389CE0790750
S11326805CF4DB01AA0FBB1FAA0FBB1F6A0F7B1FE1
S1132690660F771F680F711D3196DF0111978C91BA
S11326A080538A3050F314FF03C07195619571090A
S11326B0C60FD71F11FF08C0C114D10429F0CF01E0
S11326C00197F60191838083CA01B9017CDD212F32
S11326D02370233019F04B015C0106C04B015C01EF
S11326E0B7FAB094B7F8B09420E030E0A901C5017E
S11326F0B401D1DC882309F43CC0D7FF06C0D195CE
S1132700C195D1090DEB11E002C005ED11E068019E
S1132710F8E1CF1AD10890E2E92EF12CCE15DF05AD
S11327206CF0F8012591359145915491C501B4019E
S113273000DE4B015C01CE19DF09F0CF0450110912
S1132740F594E7940C151D0549F78A2D880F8B2DF8
S1132750881F8F3F41F020E030E0A901C501B4019A
S11327609ADC811106C082E290E090937C0580930C
S11327707B05C501B40109C060E070E080E89FEF0B
S113278004C060E070E080EC9FE7DF91CF911F917F
S11327900F91FF90EF90DF90CF90BF90AF909F90FC
S11327A08F90089591111EC0803219F08950855080
S11327B0D0F70895FB01DC014150504088F08D9121
S11327C081341CF08B350CF4805E659161341CF00F
S11327D06B350CF4605E861B611171F3990B0895DF
S11127E0881BFCCF992788270895F894FFCF13
S11327EEFF01000A00D904E2027303D702E7029143
S11327FE03F3021403E3031E03000000000000555C
S113280E035A036C0384039B03FF010064001A073D
S113281EFF0100F401C807FF010064003308EF0450
S113282EB30579053F050505CB04910457041D0432
S113283EE303A9036F033503FB02C10287024D02B2
S113284E1302D9010A417661696C61626C65206379
S113285E6F6D6D616E64733A200D0A00696E7400BB
S113286E43757272656E745F696E7465726E616CB7
S113287E3A20256420006D4100657874004375721A
S113288E72656E745F65787465726E616C3A20253C
S113289E6420000D0A3E20004C4153455220444909
S11328AE4F4445204649524D574152452056312EEC
S11328BE302E30200D0A00203A20666F726D61743E
S11328CE3A2068656C70006765745F637572726533
S11328DE6E7400203A20666F726D61743A206765DB
S11328EE745F63757272656E74205B696E742F65A6
S11328FE78745D007365745F6C6173657200203A61
S113290E20666F726D61743A207365745F6C6173C7
S113291E6572205B696E742F6578745D205B6368E5
S113292E616E6E656C5D205B64616320766F6C74A2
S113293E6167655D004F4B0D0A00434D444C494E93
S113294E455F4241445F434D440D0A00434D444CA0
S113295E494E455F544F4F5F4D414E595F4152476B
S113296E530D0A00434D444C494E455F544F4F5F3F
S113297E4645575F415247530D0A00434D444C4957
S113298E4E455F494E56414C49445F4152470D0AEC
S113299E00010005030504020707040604060301EB
S11329AE02000507050702000606060706000507CE
S11329BE05050703000104060404030404020305C9
S11329CE03080801060404070003080106040407AB
S11329DE0505080106040407070308060606050292
S11329EE0703080501060202070303050106020296
S11329FE07303132333435363738396162636465C2
S10B2A0E66004552524F5200CC
S9030000FC
